{
  "contractName": "MeloManiac",
  "abi": [
    {
      "inputs": [],
      "payable": false,
      "stateMutability": "nonpayable",
      "type": "constructor"
    },
    {
      "constant": true,
      "inputs": [],
      "name": "artistsCount",
      "outputs": [
        {
          "internalType": "uint256",
          "name": "",
          "type": "uint256"
        }
      ],
      "payable": false,
      "stateMutability": "view",
      "type": "function"
    },
    {
      "constant": true,
      "inputs": [],
      "name": "contractOwner",
      "outputs": [
        {
          "internalType": "address",
          "name": "",
          "type": "address"
        }
      ],
      "payable": false,
      "stateMutability": "view",
      "type": "function"
    },
    {
      "constant": true,
      "inputs": [],
      "name": "songsCount",
      "outputs": [
        {
          "internalType": "uint256",
          "name": "",
          "type": "uint256"
        }
      ],
      "payable": false,
      "stateMutability": "view",
      "type": "function"
    },
    {
      "constant": true,
      "inputs": [],
      "name": "usersCount",
      "outputs": [
        {
          "internalType": "uint256",
          "name": "",
          "type": "uint256"
        }
      ],
      "payable": false,
      "stateMutability": "view",
      "type": "function"
    },
    {
      "constant": true,
      "inputs": [],
      "name": "getRole",
      "outputs": [
        {
          "internalType": "enum MeloManiac.ROLE",
          "name": "",
          "type": "uint8"
        }
      ],
      "payable": false,
      "stateMutability": "view",
      "type": "function"
    },
    {
      "constant": true,
      "inputs": [
        {
          "internalType": "string",
          "name": "_hash",
          "type": "string"
        }
      ],
      "name": "songIsUnique",
      "outputs": [
        {
          "internalType": "uint256",
          "name": "",
          "type": "uint256"
        }
      ],
      "payable": false,
      "stateMutability": "view",
      "type": "function"
    },
    {
      "constant": false,
      "inputs": [],
      "name": "userRegister",
      "outputs": [],
      "payable": false,
      "stateMutability": "nonpayable",
      "type": "function"
    },
    {
      "constant": false,
      "inputs": [
        {
          "internalType": "string",
          "name": "_nickName",
          "type": "string"
        }
      ],
      "name": "artistRegister",
      "outputs": [],
      "payable": true,
      "stateMutability": "payable",
      "type": "function"
    },
    {
      "constant": false,
      "inputs": [
        {
          "internalType": "uint256",
          "name": "_notes",
          "type": "uint256"
        },
        {
          "internalType": "string",
          "name": "_title",
          "type": "string"
        },
        {
          "internalType": "string",
          "name": "songHash",
          "type": "string"
        }
      ],
      "name": "artistUploadSong",
      "outputs": [],
      "payable": false,
      "stateMutability": "nonpayable",
      "type": "function"
    },
    {
      "constant": false,
      "inputs": [
        {
          "internalType": "uint256",
          "name": "songID",
          "type": "uint256"
        }
      ],
      "name": "userBuySong",
      "outputs": [],
      "payable": true,
      "stateMutability": "payable",
      "type": "function"
    },
    {
      "constant": true,
      "inputs": [],
      "name": "userDetail",
      "outputs": [
        {
          "internalType": "uint256",
          "name": "",
          "type": "uint256"
        },
        {
          "internalType": "uint256",
          "name": "",
          "type": "uint256"
        },
        {
          "internalType": "uint256[]",
          "name": "",
          "type": "uint256[]"
        }
      ],
      "payable": false,
      "stateMutability": "view",
      "type": "function"
    },
    {
      "constant": true,
      "inputs": [
        {
          "internalType": "uint256",
          "name": "_artistID",
          "type": "uint256"
        }
      ],
      "name": "artistDetail",
      "outputs": [
        {
          "internalType": "string",
          "name": "",
          "type": "string"
        },
        {
          "internalType": "uint256[]",
          "name": "",
          "type": "uint256[]"
        }
      ],
      "payable": false,
      "stateMutability": "view",
      "type": "function"
    },
    {
      "constant": true,
      "inputs": [
        {
          "internalType": "uint256",
          "name": "songID",
          "type": "uint256"
        }
      ],
      "name": "songDetail",
      "outputs": [
        {
          "internalType": "uint256",
          "name": "artistID",
          "type": "uint256"
        },
        {
          "internalType": "uint256",
          "name": "id",
          "type": "uint256"
        },
        {
          "internalType": "string",
          "name": "title",
          "type": "string"
        },
        {
          "internalType": "uint256",
          "name": "notes",
          "type": "uint256"
        },
        {
          "internalType": "uint256",
          "name": "releaseDate",
          "type": "uint256"
        },
        {
          "internalType": "string",
          "name": "songHash",
          "type": "string"
        }
      ],
      "payable": false,
      "stateMutability": "view",
      "type": "function"
    }
  ],
  "bytecode": "0x608060405234801561001057600080fd5b50336000806101000a81548173ffffffffffffffffffffffffffffffffffffffff021916908373ffffffffffffffffffffffffffffffffffffffff160217905550600060018190555060006002819055506000600381905550611b3c806100786000396000f3fe6080604052600436106100c25760003560e01c80637b4e527b1161007f578063ce606ee011610059578063ce606ee01461058f578063d2246a3c146105e6578063e153270e14610614578063fde081741461068e576100c2565b80637b4e527b14610272578063a29975f9146103ae578063aa2f043b14610493576100c2565b8063253def13146100c757806343cb94d1146101615780634e8172b8146101da5780636ba13a82146102055780636c6f360e146102305780637adc1fec14610247575b600080fd5b3480156100d357600080fd5b5061014b600480360360208110156100ea57600080fd5b810190808035906020019064010000000081111561010757600080fd5b82018360208201111561011957600080fd5b8035906020019184600183028401116401000000008311171561013b57600080fd5b90919293919293905050506106c7565b6040518082815260200191505060405180910390f35b6101d86004803603602081101561017757600080fd5b810190808035906020019064010000000081111561019457600080fd5b8201836020820111156101a657600080fd5b803590602001918460018302840111640100000000831117156101c857600080fd5b90919293919293905050506106fc565b005b3480156101e657600080fd5b506101ef610a8a565b6040518082815260200191505060405180910390f35b34801561021157600080fd5b5061021a610a90565b6040518082815260200191505060405180910390f35b34801561023c57600080fd5b50610245610a96565b005b34801561025357600080fd5b5061025c610c1d565b6040518082815260200191505060405180910390f35b34801561027e57600080fd5b506102ab6004803603602081101561029557600080fd5b8101908080359060200190929190505050610c23565b604051808781526020018681526020018060200185815260200184815260200180602001838103835287818151815260200191508051906020019080838360005b838110156103075780820151818401526020810190506102ec565b50505050905090810190601f1680156103345780820380516001836020036101000a031916815260200191505b50838103825284818151815260200191508051906020019080838360005b8381101561036d578082015181840152602081019050610352565b50505050905090810190601f16801561039a5780820380516001836020036101000a031916815260200191505b509850505050505050505060405180910390f35b3480156103ba57600080fd5b50610491600480360360608110156103d157600080fd5b8101908080359060200190929190803590602001906401000000008111156103f857600080fd5b82018360208201111561040a57600080fd5b8035906020019184600183028401116401000000008311171561042c57600080fd5b90919293919293908035906020019064010000000081111561044d57600080fd5b82018360208201111561045f57600080fd5b8035906020019184600183028401116401000000008311171561048157600080fd5b9091929391929390505050610df5565b005b34801561049f57600080fd5b506104cc600480360360208110156104b657600080fd5b810190808035906020019092919050505061125d565b604051808060200180602001838103835285818151815260200191508051906020019080838360005b838110156105105780820151818401526020810190506104f5565b50505050905090810190601f16801561053d5780820380516001836020036101000a031916815260200191505b50838103825284818151815260200191508051906020019060200280838360005b8381101561057957808201518184015260208101905061055e565b5050505090500194505050505060405180910390f35b34801561059b57600080fd5b506105a4611383565b604051808273ffffffffffffffffffffffffffffffffffffffff1673ffffffffffffffffffffffffffffffffffffffff16815260200191505060405180910390f35b610612600480360360208110156105fc57600080fd5b81019080803590602001909291905050506113a8565b005b34801561062057600080fd5b50610629611727565b6040518084815260200183815260200180602001828103825283818151815260200191508051906020019060200280838360005b8381101561067857808201518184015260208101905061065d565b5050505090500194505050505060405180910390f35b34801561069a57600080fd5b506106a361184e565b604051808260028111156106b357fe5b60ff16815260200191505060405180910390f35b600060088383604051808383808284378083019250505092505050908152602001604051809103902060010154905092915050565b6000600560003373ffffffffffffffffffffffffffffffffffffffff1673ffffffffffffffffffffffffffffffffffffffff16815260200190815260200160002054146107b1576040517f08c379a000000000000000000000000000000000000000000000000000000000815260040180806020018281038252601a8152602001807f41727469737420416c726561647920726567697374657265642100000000000081525060200191505060405180910390fd5b66b1a2bc2ec50000341461082d576040517f08c379a00000000000000000000000000000000000000000000000000000000081526004018080602001828103825260178152602001807f41727469737420726567697374726174696f6e2066656500000000000000000081525060200191505060405180910390fd5b60016003600082825401925050819055506000600660003373ffffffffffffffffffffffffffffffffffffffff1673ffffffffffffffffffffffffffffffffffffffff16815260200190815260200160002060000154141561089257610891610a96565b5b61089a6118f9565b6040518060a001604052806003548152602001600660003373ffffffffffffffffffffffffffffffffffffffff1673ffffffffffffffffffffffffffffffffffffffff16815260200190815260200160002060000154815260200184848080601f016020809104026020016040519081016040528093929190818152602001838380828437600081840152601f19601f8201169050808301925050505050505081526020013373ffffffffffffffffffffffffffffffffffffffff168152602001600060405190808252806020026020018201604052801561098b5781602001602082028038833980820191505090505b508152509050600354600560003373ffffffffffffffffffffffffffffffffffffffff1673ffffffffffffffffffffffffffffffffffffffff168152602001908152602001600020819055508060046000600354815260200190815260200160002060008201518160000155602082015181600101556040820151816002019080519060200190610a1d92919061193e565b5060608201518160030160006101000a81548173ffffffffffffffffffffffffffffffffffffffff021916908373ffffffffffffffffffffffffffffffffffffffff1602179055506080820151816004019080519060200190610a819291906119be565b50905050505050565b60015481565b60025481565b6000600660003373ffffffffffffffffffffffffffffffffffffffff1673ffffffffffffffffffffffffffffffffffffffff1681526020019081526020016000206000015414610b4e576040517f08c379a00000000000000000000000000000000000000000000000000000000081526004018080602001828103825260188152602001807f5573657220416c7265616479207265676973746572656421000000000000000081525060200191505060405180910390fd5b6001600260008282540192505081905550610b67611a0b565b604051806040016040528060025481526020016000604051908082528060200260200182016040528015610baa5781602001602082028038833980820191505090505b50815250905080600660003373ffffffffffffffffffffffffffffffffffffffff1673ffffffffffffffffffffffffffffffffffffffff168152602001908152602001600020600082015181600001556020820151816001019080519060200190610c169291906119be565b5090505050565b60035481565b60008060606000806060610c35611a25565b600760008981526020019081526020016000206040518060c00160405290816000820154815260200160018201548152602001600282018054600181600116156101000203166002900480601f016020809104026020016040519081016040528092919081815260200182805460018160011615610100020316600290048015610d005780601f10610cd557610100808354040283529160200191610d00565b820191906000526020600020905b815481529060010190602001808311610ce357829003601f168201915b505050505081526020016003820154815260200160048201548152602001600582018054600181600116156101000203166002900480601f016020809104026020016040519081016040528092919081815260200182805460018160011615610100020316600290048015610db65780601f10610d8b57610100808354040283529160200191610db6565b820191906000526020600020905b815481529060010190602001808311610d9957829003601f168201915b505050505081525050905080602001519550806000015196508060400151945080608001519350806060015192508060a0015191505091939550919395565b6000600560003373ffffffffffffffffffffffffffffffffffffffff1673ffffffffffffffffffffffffffffffffffffffff168152602001908152602001600020541415610eab576040517f08c379a000000000000000000000000000000000000000000000000000000000815260040180806020018281038252600d8152602001807f4e6f7420616e206172746973740000000000000000000000000000000000000081525060200191505060405180910390fd5b81818080601f016020809104026020016040519081016040528093929190818152602001838380828437600081840152601f19601f8201169050808301925050505050505060006008826040518082805190602001908083835b60208310610f285780518252602082019150602081019050602083039250610f05565b6001836020036101000a03801982511681845116808217855250505050505090500191505090815260200160405180910390206001015414610fd2576040517f08c379a00000000000000000000000000000000000000000000000000000000081526004018080602001828103825260168152602001807f43616e27742075706c6f6164206475706c69636174650000000000000000000081525060200191505060405180910390fd5b60018060008282540192505081905550600060046000600560003373ffffffffffffffffffffffffffffffffffffffff1673ffffffffffffffffffffffffffffffffffffffff16815260200190815260200160002054815260200190815260200160002090508060040160015490806001815401808255809150509060018203906000526020600020016000909192909190915055506040518060c0016040528082600001548152602001600154815260200187878080601f016020809104026020016040519081016040528093929190818152602001838380828437600081840152601f19601f82011690508083019250505050505050815260200142815260200188815260200185858080601f016020809104026020016040519081016040528093929190818152602001838380828437600081840152601f19601f820116905080830192505050505050508152506007600060015481526020019081526020016000206000820151816000015560208201518160010155604082015181600201908051906020019061116892919061193e565b50606082015181600301556080820151816004015560a082015181600501908051906020019061119992919061193e565b50905050600760006001548152602001908152602001600020600885856040518083838082843780830192505050925050509081526020016040518091039020600082015481600001556001820154816001015560028201816002019080546001816001161561010002031660029004611214929190611a5b565b50600382015481600301556004820154816004015560058201816005019080546001816001161561010002031660029004611250929190611a5b565b5090505050505050505050565b6060806004600084815260200190815260200160002060020160046000858152602001908152602001600020600401818054600181600116156101000203166002900480601f0160208091040260200160405190810160405280929190818152602001828054600181600116156101000203166002900480156113215780601f106112f657610100808354040283529160200191611321565b820191906000526020600020905b81548152906001019060200180831161130457829003601f168201915b505050505091508080548060200260200160405190810160405280929190818152602001828054801561137357602002820191906000526020600020905b81548152602001906001019080831161135f575b5050505050905091509150915091565b6000809054906101000a900473ffffffffffffffffffffffffffffffffffffffff1681565b6000600660003373ffffffffffffffffffffffffffffffffffffffff1673ffffffffffffffffffffffffffffffffffffffff168152602001908152602001600020600001541415611461576040517f08c379a000000000000000000000000000000000000000000000000000000000815260040180806020018281038252600a8152602001807f4e6f74206120757365720000000000000000000000000000000000000000000081525060200191505060405180910390fd5b60006007600083815260200190815260200160002090506000816001015414156114f3576040517f08c379a00000000000000000000000000000000000000000000000000000000081526004018080602001828103825260148152602001807f536f6e6720646f6573206e6f742065786973742100000000000000000000000081525060200191505060405180910390fd5b8060040154341461156c576040517f08c379a000000000000000000000000000000000000000000000000000000000815260040180806020018281038252601b8152602001807f436865636b20696620736f6e67206e6f7465732069732070616964000000000081525060200191505060405180910390fd5b6000600660003373ffffffffffffffffffffffffffffffffffffffff1673ffffffffffffffffffffffffffffffffffffffff168152602001908152602001600020905080600201600084815260200190815260200160002060009054906101000a900460ff1615611645576040517f08c379a000000000000000000000000000000000000000000000000000000000815260040180806020018281038252600f8152602001807f43616e277420627579207477696365000000000000000000000000000000000081525060200191505060405180910390fd5b80600101839080600181540180825580915050906001820390600052602060002001600090919290919091505550600181600201600085815260200190815260200160002060006101000a81548160ff021916908315150217905550600460008360000154815260200190815260200160002060030160009054906101000a900473ffffffffffffffffffffffffffffffffffffffff1673ffffffffffffffffffffffffffffffffffffffff166108fc349081150290604051600060405180830381858888f19350505050158015611721573d6000803e3d6000fd5b50505050565b6000806060600660003373ffffffffffffffffffffffffffffffffffffffff1673ffffffffffffffffffffffffffffffffffffffff16815260200190815260200160002060000154600560003373ffffffffffffffffffffffffffffffffffffffff1673ffffffffffffffffffffffffffffffffffffffff16815260200190815260200160002054600660003373ffffffffffffffffffffffffffffffffffffffff1673ffffffffffffffffffffffffffffffffffffffff1681526020019081526020016000206001018080548060200260200160405190810160405280929190818152602001828054801561183c57602002820191906000526020600020905b815481526020019060010190808311611828575b50505050509050925092509250909192565b600080600560003373ffffffffffffffffffffffffffffffffffffffff1673ffffffffffffffffffffffffffffffffffffffff1681526020019081526020016000205414156118f1576000600660003373ffffffffffffffffffffffffffffffffffffffff1673ffffffffffffffffffffffffffffffffffffffff1681526020019081526020016000206000015414156118e95760006118ec565b60025b6118f4565b60015b905090565b6040518060a00160405280600081526020016000815260200160608152602001600073ffffffffffffffffffffffffffffffffffffffff168152602001606081525090565b828054600181600116156101000203166002900490600052602060002090601f016020900481019282601f1061197f57805160ff19168380011785556119ad565b828001600101855582156119ad579182015b828111156119ac578251825591602001919060010190611991565b5b5090506119ba9190611ae2565b5090565b8280548282559060005260206000209081019282156119fa579160200282015b828111156119f95782518255916020019190600101906119de565b5b509050611a079190611ae2565b5090565b604051806040016040528060008152602001606081525090565b6040518060c001604052806000815260200160008152602001606081526020016000815260200160008152602001606081525090565b828054600181600116156101000203166002900490600052602060002090601f016020900481019282601f10611a945780548555611ad1565b82800160010185558215611ad157600052602060002091601f016020900482015b82811115611ad0578254825591600101919060010190611ab5565b5b509050611ade9190611ae2565b5090565b611b0491905b80821115611b00576000816000905550600101611ae8565b5090565b9056fea265627a7a72315820feca968ca1cf57c6e374a73d05bdeb5f0665cd7c90bdd199dd2ccf46e2f6419a64736f6c63430005100032",
  "source": "// SPDX-License-Identifier: MIT\npragma solidity >=0.4.22 <0.9.0;\n\n// Deployed at <Enter address starting with 0x> on Ropsten Network\n\ncontract MeloManiac {\n    address public contractOwner;\n    uint public songsCount;\n    uint public usersCount;\n    uint public artistsCount;\n \n    struct User {\n        uint userID;\n        uint[] ownedSongs;\n        mapping (uint => bool) ownership;\n    }\n \n    struct Artist {\n        uint artistID;\n        uint userID;\n        string nickName;\n        address payable artistAddress;\n        uint[] uploadedSongs;\n    }\n \n    struct Song {\n        uint artistID;\n        uint songID;\n        string title;\n        uint releaseDate;\n        uint notes;\n        string songHash;\n    }\n \n    enum ROLE {UNREGISTERED, ARTIST, USER}\n \n    mapping (uint => Artist) artistIDToArtist;\n    mapping (address => uint) addressToArtistID;\n    mapping (address => User) addressToUser;\n    mapping (uint => Song) songIDtoSong;\n    mapping (string => Song) hashToSong;\n\n    modifier onlyUser {\n        require(addressToUser[msg.sender].userID != 0, \"Not a user\");\n        _;\n    }\n\n    modifier onlyArtist {\n        require(addressToArtistID[msg.sender] != 0, \"Not an artist\");\n        _;\n    }\n    \n    modifier onlyNewUser {\n        require(addressToUser[msg.sender].userID == 0, \"User Already registered!\");\n        _;\n    }\n\n    modifier onlyNewArtist {\n        require(addressToArtistID[msg.sender] == 0, \"Artist Already registered!\");\n        _;\n    }\n\n    modifier onlyUniqueSong(string memory songHash) {\n        require(hashToSong[songHash].songID == 0, \"Can't upload duplicate\");\n        _;\n    }\n\n    constructor() public {\n        contractOwner = msg.sender;\n        songsCount = 0;\n        usersCount = 0;\n        artistsCount = 0;\n    }\n \n    function getRole() external view returns(ROLE) {\n        return ((addressToArtistID[msg.sender] != 0) ? ROLE.ARTIST: (addressToUser[msg.sender].userID != 0) ? ROLE.USER: ROLE.UNREGISTERED);\n    }\n    \n    function songIsUnique(string calldata _hash) external view returns(uint) {\n        return hashToSong[_hash].songID;\n    }\n     \n    function userRegister() public onlyNewUser {\n        usersCount += 1;\n        \n        User memory newUser = User(usersCount, new uint[](0));\n        addressToUser[msg.sender] = newUser;\n    }\n     \n    function artistRegister(string calldata _nickName) external onlyNewArtist payable {\n        require(msg.value == 0.05 ether,\"Artist registration fee\");\n        artistsCount += 1;\n        \n        if (addressToUser[msg.sender].userID == 0) {\n            userRegister();\n        }\n        \n        Artist memory newArtist = Artist(artistsCount,addressToUser[msg.sender].userID, _nickName, msg.sender, new uint[](0));\n        \n        addressToArtistID[msg.sender] = artistsCount;\n        artistIDToArtist[artistsCount] = newArtist;\n    }\n     \n    function artistUploadSong(uint _notes, string calldata _title, string calldata songHash) external onlyArtist onlyUniqueSong(songHash) {\n        songsCount += 1;\n        \n        Artist storage artistInstance = artistIDToArtist[addressToArtistID[msg.sender]];\n        artistInstance.uploadedSongs.push(songsCount);\n    \n        songIDtoSong[songsCount] = Song(artistInstance.artistID, songsCount, _title, now, _notes, songHash);\n        hashToSong[songHash] = songIDtoSong[songsCount];\n    }\n     \n    function userBuySong(uint songID) external onlyUser payable {\n        Song storage song = songIDtoSong[songID];\n        require(song.songID != 0, \"Song does not exist!\");\n        require(msg.value == song.notes, \"Check if song notes is paid\");\n\n        User storage user = addressToUser[msg.sender];\n        require(!user.ownership[songID], \"Can't buy twice\");\n        \n        user.ownedSongs.push(songID);\n        user.ownership[songID] = true;\n    \n        artistIDToArtist[song.artistID].artistAddress.transfer(msg.value);\n    }\n     \n    function userDetail() external view returns(uint, uint, uint[] memory) {\n        return (addressToUser[msg.sender].userID, addressToArtistID[msg.sender], addressToUser[msg.sender].ownedSongs);\n    }\n     \n    function artistDetail(uint _artistID) external view returns(string memory, uint[] memory) {\n        return (artistIDToArtist[_artistID].nickName, artistIDToArtist[_artistID].uploadedSongs);\n    }\n     \n    function songDetail(uint songID) external view returns(uint artistID, uint id, string memory title, uint notes, uint releaseDate, string memory songHash) {\n        Song memory song = songIDtoSong[songID];        \n        id = song.songID;\n        artistID = song.artistID;\n        title = song.title;\n        notes = song.notes;\n        releaseDate = song.releaseDate;\n        songHash = song.songHash;\n    }\n    \n    // function donate(uint artistID) public payable {\n    //     artistIDToArtist[artistID].artistAddress.transfer(msg.value);\n    // }\n}",
  "sourcePath": "/Users/shriramr/Documents/GitHub/MeloManiac/contracts/MeloManiac.sol",
  "compiler": {
    "name": "solc",
    "version": "0.5.16+commit.9c3226ce.Emscripten.clang"
  },
  "schemaVersion": "3.4.5",
  "updatedAt": "2022-05-07T03:59:11.385Z",
  "networkType": "ethereum",
  "devdoc": {
    "methods": {}
  },
  "userdoc": {
    "methods": {}
  }
}