{
  "contractName": "MeloManiac",
  "abi": [
    {
      "inputs": [],
      "payable": false,
      "stateMutability": "nonpayable",
      "type": "constructor"
    },
    {
      "constant": true,
      "inputs": [],
      "name": "artistsCount",
      "outputs": [
        {
          "internalType": "uint256",
          "name": "",
          "type": "uint256"
        }
      ],
      "payable": false,
      "stateMutability": "view",
      "type": "function"
    },
    {
      "constant": true,
      "inputs": [],
      "name": "contractOwner",
      "outputs": [
        {
          "internalType": "address",
          "name": "",
          "type": "address"
        }
      ],
      "payable": false,
      "stateMutability": "view",
      "type": "function"
    },
    {
      "constant": true,
      "inputs": [],
      "name": "songsCount",
      "outputs": [
        {
          "internalType": "uint256",
          "name": "",
          "type": "uint256"
        }
      ],
      "payable": false,
      "stateMutability": "view",
      "type": "function"
    },
    {
      "constant": true,
      "inputs": [],
      "name": "usersCount",
      "outputs": [
        {
          "internalType": "uint256",
          "name": "",
          "type": "uint256"
        }
      ],
      "payable": false,
      "stateMutability": "view",
      "type": "function"
    },
    {
      "constant": true,
      "inputs": [],
      "name": "getRole",
      "outputs": [
        {
          "internalType": "enum MeloManiac.ROLE",
          "name": "",
          "type": "uint8"
        }
      ],
      "payable": false,
      "stateMutability": "view",
      "type": "function"
    },
    {
      "constant": true,
      "inputs": [
        {
          "internalType": "string",
          "name": "_hash",
          "type": "string"
        }
      ],
      "name": "songIsUnique",
      "outputs": [
        {
          "internalType": "uint256",
          "name": "",
          "type": "uint256"
        }
      ],
      "payable": false,
      "stateMutability": "view",
      "type": "function"
    },
    {
      "constant": false,
      "inputs": [],
      "name": "userRegister",
      "outputs": [],
      "payable": false,
      "stateMutability": "nonpayable",
      "type": "function"
    },
    {
      "constant": false,
      "inputs": [
        {
          "internalType": "string",
          "name": "_nickName",
          "type": "string"
        }
      ],
      "name": "artistRegister",
      "outputs": [],
      "payable": true,
      "stateMutability": "payable",
      "type": "function"
    },
    {
      "constant": false,
      "inputs": [
        {
          "internalType": "uint256",
          "name": "_notes",
          "type": "uint256"
        },
        {
          "internalType": "string",
          "name": "_title",
          "type": "string"
        },
        {
          "internalType": "string",
          "name": "songHash",
          "type": "string"
        }
      ],
      "name": "artistUploadSong",
      "outputs": [],
      "payable": false,
      "stateMutability": "nonpayable",
      "type": "function"
    },
    {
      "constant": false,
      "inputs": [
        {
          "internalType": "uint256",
          "name": "songID",
          "type": "uint256"
        }
      ],
      "name": "userBuySong",
      "outputs": [],
      "payable": true,
      "stateMutability": "payable",
      "type": "function"
    },
    {
      "constant": true,
      "inputs": [],
      "name": "userDetail",
      "outputs": [
        {
          "internalType": "uint256",
          "name": "",
          "type": "uint256"
        },
        {
          "internalType": "uint256",
          "name": "",
          "type": "uint256"
        },
        {
          "internalType": "uint256[]",
          "name": "",
          "type": "uint256[]"
        }
      ],
      "payable": false,
      "stateMutability": "view",
      "type": "function"
    },
    {
      "constant": true,
      "inputs": [
        {
          "internalType": "uint256",
          "name": "_artistID",
          "type": "uint256"
        }
      ],
      "name": "artistDetail",
      "outputs": [
        {
          "internalType": "string",
          "name": "",
          "type": "string"
        },
        {
          "internalType": "uint256[]",
          "name": "",
          "type": "uint256[]"
        }
      ],
      "payable": false,
      "stateMutability": "view",
      "type": "function"
    },
    {
      "constant": true,
      "inputs": [
        {
          "internalType": "uint256",
          "name": "songID",
          "type": "uint256"
        }
      ],
      "name": "songDetail",
      "outputs": [
        {
          "internalType": "uint256",
          "name": "artistID",
          "type": "uint256"
        },
        {
          "internalType": "uint256",
          "name": "id",
          "type": "uint256"
        },
        {
          "internalType": "string",
          "name": "title",
          "type": "string"
        },
        {
          "internalType": "uint256",
          "name": "notes",
          "type": "uint256"
        },
        {
          "internalType": "uint256",
          "name": "releaseDate",
          "type": "uint256"
        }
      ],
      "payable": false,
      "stateMutability": "view",
      "type": "function"
    },
    {
      "constant": false,
      "inputs": [
        {
          "internalType": "uint256",
          "name": "artistID",
          "type": "uint256"
        }
      ],
      "name": "donate",
      "outputs": [],
      "payable": true,
      "stateMutability": "payable",
      "type": "function"
    }
  ],
  "bytecode": "0x608060405234801561001057600080fd5b50336000806101000a81548173ffffffffffffffffffffffffffffffffffffffff021916908373ffffffffffffffffffffffffffffffffffffffff160217905550600060018190555060006002819055506000600381905550611a58806100786000396000f3fe6080604052600436106100dd5760003560e01c8063a29975f91161007f578063d2246a3c11610059578063d2246a3c14610595578063e153270e146105c3578063f14faf6f1461063d578063fde081741461066b576100dd565b8063a29975f91461035d578063aa2f043b14610442578063ce606ee01461053e576100dd565b80636ba13a82116100bb5780636ba13a82146102205780636c6f360e1461024b5780637adc1fec146102625780637b4e527b1461028d576100dd565b8063253def13146100e257806343cb94d11461017c5780634e8172b8146101f5575b600080fd5b3480156100ee57600080fd5b506101666004803603602081101561010557600080fd5b810190808035906020019064010000000081111561012257600080fd5b82018360208201111561013457600080fd5b8035906020019184600183028401116401000000008311171561015657600080fd5b90919293919293905050506106a4565b6040518082815260200191505060405180910390f35b6101f36004803603602081101561019257600080fd5b81019080803590602001906401000000008111156101af57600080fd5b8201836020820111156101c157600080fd5b803590602001918460018302840111640100000000831117156101e357600080fd5b90919293919293905050506106d9565b005b34801561020157600080fd5b5061020a610a67565b6040518082815260200191505060405180910390f35b34801561022c57600080fd5b50610235610a6d565b6040518082815260200191505060405180910390f35b34801561025757600080fd5b50610260610a73565b005b34801561026e57600080fd5b50610277610bfa565b6040518082815260200191505060405180910390f35b34801561029957600080fd5b506102c6600480360360208110156102b057600080fd5b8101908080359060200190929190505050610c00565b6040518086815260200185815260200180602001848152602001838152602001828103825285818151815260200191508051906020019080838360005b8381101561031e578082015181840152602081019050610303565b50505050905090810190601f16801561034b5780820380516001836020036101000a031916815260200191505b50965050505050505060405180910390f35b34801561036957600080fd5b506104406004803603606081101561038057600080fd5b8101908080359060200190929190803590602001906401000000008111156103a757600080fd5b8201836020820111156103b957600080fd5b803590602001918460018302840111640100000000831117156103db57600080fd5b9091929391929390803590602001906401000000008111156103fc57600080fd5b82018360208201111561040e57600080fd5b8035906020019184600183028401116401000000008311171561043057600080fd5b9091929391929390505050610d27565b005b34801561044e57600080fd5b5061047b6004803603602081101561046557600080fd5b8101908080359060200190929190505050611100565b604051808060200180602001838103835285818151815260200191508051906020019080838360005b838110156104bf5780820151818401526020810190506104a4565b50505050905090810190601f1680156104ec5780820380516001836020036101000a031916815260200191505b50838103825284818151815260200191508051906020019060200280838360005b8381101561052857808201518184015260208101905061050d565b5050505090500194505050505060405180910390f35b34801561054a57600080fd5b50610553611226565b604051808273ffffffffffffffffffffffffffffffffffffffff1673ffffffffffffffffffffffffffffffffffffffff16815260200191505060405180910390f35b6105c1600480360360208110156105ab57600080fd5b810190808035906020019092919050505061124b565b005b3480156105cf57600080fd5b506105d86115ca565b6040518084815260200183815260200180602001828103825283818151815260200191508051906020019060200280838360005b8381101561062757808201518184015260208101905061060c565b5050505090500194505050505060405180910390f35b6106696004803603602081101561065357600080fd5b81019080803590602001909291905050506116f1565b005b34801561067757600080fd5b50610680611771565b6040518082600281111561069057fe5b60ff16815260200191505060405180910390f35b600060088383604051808383808284378083019250505092505050908152602001604051809103902060010154905092915050565b6000600560003373ffffffffffffffffffffffffffffffffffffffff1673ffffffffffffffffffffffffffffffffffffffff168152602001908152602001600020541461078e576040517f08c379a000000000000000000000000000000000000000000000000000000000815260040180806020018281038252601a8152602001807f41727469737420416c726561647920726567697374657265642100000000000081525060200191505060405180910390fd5b66b1a2bc2ec50000341461080a576040517f08c379a00000000000000000000000000000000000000000000000000000000081526004018080602001828103825260178152602001807f41727469737420726567697374726174696f6e2066656500000000000000000081525060200191505060405180910390fd5b60016003600082825401925050819055506000600660003373ffffffffffffffffffffffffffffffffffffffff1673ffffffffffffffffffffffffffffffffffffffff16815260200190815260200160002060000154141561086f5761086e610a73565b5b61087761181c565b6040518060a001604052806003548152602001600660003373ffffffffffffffffffffffffffffffffffffffff1673ffffffffffffffffffffffffffffffffffffffff16815260200190815260200160002060000154815260200184848080601f016020809104026020016040519081016040528093929190818152602001838380828437600081840152601f19601f8201169050808301925050505050505081526020013373ffffffffffffffffffffffffffffffffffffffff16815260200160006040519080825280602002602001820160405280156109685781602001602082028038833980820191505090505b508152509050600354600560003373ffffffffffffffffffffffffffffffffffffffff1673ffffffffffffffffffffffffffffffffffffffff1681526020019081526020016000208190555080600460006003548152602001908152602001600020600082015181600001556020820151816001015560408201518160020190805190602001906109fa929190611861565b5060608201518160030160006101000a81548173ffffffffffffffffffffffffffffffffffffffff021916908373ffffffffffffffffffffffffffffffffffffffff1602179055506080820151816004019080519060200190610a5e9291906118e1565b50905050505050565b60015481565b60025481565b6000600660003373ffffffffffffffffffffffffffffffffffffffff1673ffffffffffffffffffffffffffffffffffffffff1681526020019081526020016000206000015414610b2b576040517f08c379a00000000000000000000000000000000000000000000000000000000081526004018080602001828103825260188152602001807f5573657220416c7265616479207265676973746572656421000000000000000081525060200191505060405180910390fd5b6001600260008282540192505081905550610b4461192e565b604051806040016040528060025481526020016000604051908082528060200260200182016040528015610b875781602001602082028038833980820191505090505b50815250905080600660003373ffffffffffffffffffffffffffffffffffffffff1673ffffffffffffffffffffffffffffffffffffffff168152602001908152602001600020600082015181600001556020820151816001019080519060200190610bf39291906118e1565b5090505050565b60035481565b6000806060600080610c10611948565b600760008881526020019081526020016000206040518060a00160405290816000820154815260200160018201548152602001600282018054600181600116156101000203166002900480601f016020809104026020016040519081016040528092919081815260200182805460018160011615610100020316600290048015610cdb5780601f10610cb057610100808354040283529160200191610cdb565b820191906000526020600020905b815481529060010190602001808311610cbe57829003601f168201915b5050505050815260200160038201548152602001600482015481525050905080602001519450806000015195508060400151935080608001519250806060015191505091939590929450565b6000600560003373ffffffffffffffffffffffffffffffffffffffff1673ffffffffffffffffffffffffffffffffffffffff168152602001908152602001600020541415610ddd576040517f08c379a000000000000000000000000000000000000000000000000000000000815260040180806020018281038252600d8152602001807f4e6f7420616e206172746973740000000000000000000000000000000000000081525060200191505060405180910390fd5b81818080601f016020809104026020016040519081016040528093929190818152602001838380828437600081840152601f19601f8201169050808301925050505050505060006008826040518082805190602001908083835b60208310610e5a5780518252602082019150602081019050602083039250610e37565b6001836020036101000a03801982511681845116808217855250505050505090500191505090815260200160405180910390206001015414610f04576040517f08c379a00000000000000000000000000000000000000000000000000000000081526004018080602001828103825260168152602001807f43616e27742075706c6f6164206475706c69636174650000000000000000000081525060200191505060405180910390fd5b60018060008282540192505081905550600060046000600560003373ffffffffffffffffffffffffffffffffffffffff1673ffffffffffffffffffffffffffffffffffffffff16815260200190815260200160002054815260200190815260200160002090508060040160015490806001815401808255809150509060018203906000526020600020016000909192909190915055506040518060a0016040528082600001548152602001600154815260200187878080601f016020809104026020016040519081016040528093929190818152602001838380828437600081840152601f19601f8201169050808301925050505050505081526020018881526020014281525060076000600154815260200190815260200160002060008201518160000155602082015181600101556040820151816002019080519060200190611050929190611861565b5060608201518160030155608082015181600401559050506007600060015481526020019081526020016000206008858560405180838380828437808301925050509250505090815260200160405180910390206000820154816000015560018201548160010155600282018160020190805460018160011615610100020316600290046110df929190611977565b50600382015481600301556004820154816004015590505050505050505050565b6060806004600084815260200190815260200160002060020160046000858152602001908152602001600020600401818054600181600116156101000203166002900480601f0160208091040260200160405190810160405280929190818152602001828054600181600116156101000203166002900480156111c45780601f10611199576101008083540402835291602001916111c4565b820191906000526020600020905b8154815290600101906020018083116111a757829003601f168201915b505050505091508080548060200260200160405190810160405280929190818152602001828054801561121657602002820191906000526020600020905b815481526020019060010190808311611202575b5050505050905091509150915091565b6000809054906101000a900473ffffffffffffffffffffffffffffffffffffffff1681565b6000600660003373ffffffffffffffffffffffffffffffffffffffff1673ffffffffffffffffffffffffffffffffffffffff168152602001908152602001600020600001541415611304576040517f08c379a000000000000000000000000000000000000000000000000000000000815260040180806020018281038252600a8152602001807f4e6f74206120757365720000000000000000000000000000000000000000000081525060200191505060405180910390fd5b6000600760008381526020019081526020016000209050600081600101541415611396576040517f08c379a00000000000000000000000000000000000000000000000000000000081526004018080602001828103825260148152602001807f536f6e6720646f6573206e6f742065786973742100000000000000000000000081525060200191505060405180910390fd5b8060040154341461140f576040517f08c379a000000000000000000000000000000000000000000000000000000000815260040180806020018281038252601b8152602001807f436865636b20696620736f6e67206e6f7465732069732070616964000000000081525060200191505060405180910390fd5b6000600660003373ffffffffffffffffffffffffffffffffffffffff1673ffffffffffffffffffffffffffffffffffffffff168152602001908152602001600020905080600201600084815260200190815260200160002060009054906101000a900460ff16156114e8576040517f08c379a000000000000000000000000000000000000000000000000000000000815260040180806020018281038252600f8152602001807f43616e277420627579207477696365000000000000000000000000000000000081525060200191505060405180910390fd5b80600101839080600181540180825580915050906001820390600052602060002001600090919290919091505550600181600201600085815260200190815260200160002060006101000a81548160ff021916908315150217905550600460008360000154815260200190815260200160002060030160009054906101000a900473ffffffffffffffffffffffffffffffffffffffff1673ffffffffffffffffffffffffffffffffffffffff166108fc349081150290604051600060405180830381858888f193505050501580156115c4573d6000803e3d6000fd5b50505050565b6000806060600660003373ffffffffffffffffffffffffffffffffffffffff1673ffffffffffffffffffffffffffffffffffffffff16815260200190815260200160002060000154600560003373ffffffffffffffffffffffffffffffffffffffff1673ffffffffffffffffffffffffffffffffffffffff16815260200190815260200160002054600660003373ffffffffffffffffffffffffffffffffffffffff1673ffffffffffffffffffffffffffffffffffffffff168152602001908152602001600020600101808054806020026020016040519081016040528092919081815260200182805480156116df57602002820191906000526020600020905b8154815260200190600101908083116116cb575b50505050509050925092509250909192565b6004600082815260200190815260200160002060030160009054906101000a900473ffffffffffffffffffffffffffffffffffffffff1673ffffffffffffffffffffffffffffffffffffffff166108fc349081150290604051600060405180830381858888f1935050505015801561176d573d6000803e3d6000fd5b5050565b600080600560003373ffffffffffffffffffffffffffffffffffffffff1673ffffffffffffffffffffffffffffffffffffffff168152602001908152602001600020541415611814576000600660003373ffffffffffffffffffffffffffffffffffffffff1673ffffffffffffffffffffffffffffffffffffffff16815260200190815260200160002060000154141561180c57600061180f565b60025b611817565b60015b905090565b6040518060a00160405280600081526020016000815260200160608152602001600073ffffffffffffffffffffffffffffffffffffffff168152602001606081525090565b828054600181600116156101000203166002900490600052602060002090601f016020900481019282601f106118a257805160ff19168380011785556118d0565b828001600101855582156118d0579182015b828111156118cf5782518255916020019190600101906118b4565b5b5090506118dd91906119fe565b5090565b82805482825590600052602060002090810192821561191d579160200282015b8281111561191c578251825591602001919060010190611901565b5b50905061192a91906119fe565b5090565b604051806040016040528060008152602001606081525090565b6040518060a0016040528060008152602001600081526020016060815260200160008152602001600081525090565b828054600181600116156101000203166002900490600052602060002090601f016020900481019282601f106119b057805485556119ed565b828001600101855582156119ed57600052602060002091601f016020900482015b828111156119ec5782548255916001019190600101906119d1565b5b5090506119fa91906119fe565b5090565b611a2091905b80821115611a1c576000816000905550600101611a04565b5090565b9056fea265627a7a723158201abbd009bc51c8460660fc4f03cc8595a75ebaf668f7040cc2c3395dfa43ed9664736f6c63430005100032",
  "source": "// SPDX-License-Identifier: MIT\npragma solidity >=0.4.22 <0.9.0;\n\n// Deployed at <Enter address starting with 0x> on Ropsten Network\n\ncontract MeloManiac {\n    address public contractOwner;\n    uint public songsCount;\n    uint public usersCount;\n    uint public artistsCount;\n \n    struct User {\n        uint userID;\n        uint[] ownedSongs;\n        mapping (uint => bool) ownership;\n    }\n \n    struct Artist {\n        uint artistID;\n        uint userID;\n        string nickName;\n        address payable artistAddress;\n        uint[] uploadedSongs;\n    }\n \n    struct Song {\n        uint artistID;\n        uint songID;\n        string title;\n        uint releaseDate;\n        uint notes;\n    }\n \n    enum ROLE {UNREGISTERED, ARTIST, USER}\n \n    mapping (uint => Artist) artistIDToArtist;\n    mapping (address => uint) addressToArtistID;\n    mapping (address => User) addressToUser;\n    mapping (uint => Song) songIDtoSong;\n    mapping (string => Song) hashToSong;\n\n    modifier onlyUser {\n        require(addressToUser[msg.sender].userID != 0, \"Not a user\");\n        _;\n    }\n\n    modifier onlyArtist {\n        require(addressToArtistID[msg.sender] != 0, \"Not an artist\");\n        _;\n    }\n    \n    modifier onlyNewUser {\n        require(addressToUser[msg.sender].userID == 0, \"User Already registered!\");\n        _;\n    }\n\n    modifier onlyNewArtist {\n        require(addressToArtistID[msg.sender] == 0, \"Artist Already registered!\");\n        _;\n    }\n\n    modifier onlyUniqueSong(string memory songHash) {\n        require(hashToSong[songHash].songID == 0, \"Can't upload duplicate\");\n        _;\n    }\n\n    constructor() public {\n        contractOwner = msg.sender;\n        songsCount = 0;\n        usersCount = 0;\n        artistsCount = 0;\n    }\n \n    function getRole() external view returns(ROLE) {\n        return ((addressToArtistID[msg.sender] != 0) ? ROLE.ARTIST: (addressToUser[msg.sender].userID != 0) ? ROLE.USER: ROLE.UNREGISTERED);\n    }\n    \n    function songIsUnique(string calldata _hash) external view returns(uint) {\n        return hashToSong[_hash].songID;\n    }\n     \n    function userRegister() public onlyNewUser {\n        usersCount += 1;\n        \n        User memory newUser = User(usersCount, new uint[](0));\n        addressToUser[msg.sender] = newUser;\n    }\n     \n    function artistRegister(string calldata _nickName) external onlyNewArtist payable {\n        require(msg.value == 0.05 ether,\"Artist registration fee\");\n        artistsCount += 1;\n        \n        if (addressToUser[msg.sender].userID == 0) {\n            userRegister();\n        }\n        \n        Artist memory newArtist = Artist(artistsCount,addressToUser[msg.sender].userID, _nickName, msg.sender, new uint[](0));\n        \n        addressToArtistID[msg.sender] = artistsCount;\n        artistIDToArtist[artistsCount] = newArtist;\n    }\n     \n    function artistUploadSong(uint _notes, string calldata _title, string calldata songHash) external onlyArtist onlyUniqueSong(songHash) {\n        songsCount += 1;\n        \n        Artist storage artistInstance = artistIDToArtist[addressToArtistID[msg.sender]];\n        artistInstance.uploadedSongs.push(songsCount);\n    \n        songIDtoSong[songsCount] = Song(artistInstance.artistID, songsCount, _title, _notes, now);\n        hashToSong[songHash] = songIDtoSong[songsCount];\n    }\n     \n    function userBuySong(uint songID) external onlyUser payable {\n        Song storage song = songIDtoSong[songID];\n        require(song.songID != 0, \"Song does not exist!\");\n        require(msg.value == song.notes, \"Check if song notes is paid\");\n\n        User storage user = addressToUser[msg.sender];\n        require(!user.ownership[songID], \"Can't buy twice\");\n        \n        user.ownedSongs.push(songID);\n        user.ownership[songID] = true;\n    \n        artistIDToArtist[song.artistID].artistAddress.transfer(msg.value);\n    }\n     \n    function userDetail() external view returns(uint, uint, uint[] memory) {\n        return (addressToUser[msg.sender].userID, addressToArtistID[msg.sender], addressToUser[msg.sender].ownedSongs);\n    }\n     \n    function artistDetail(uint _artistID) external view returns(string memory, uint[] memory) {\n        return (artistIDToArtist[_artistID].nickName, artistIDToArtist[_artistID].uploadedSongs);\n    }\n     \n    function songDetail(uint songID) external view returns(uint artistID, uint id, string memory title, uint notes, uint releaseDate) {\n        Song memory song = songIDtoSong[songID];        \n        id = song.songID;\n        artistID = song.artistID;\n        title = song.title;\n        notes = song.notes;\n        releaseDate = song.releaseDate;\n    }\n    \n    function donate(uint artistID) public payable {\n        artistIDToArtist[artistID].artistAddress.transfer(msg.value);\n    }\n}",
  "sourcePath": "/Users/siddharthsankaran/Downloads/Study/Spring-2022/CSE-526/Project/Phase-2/MeloManiac/contracts/MeloManiac.sol",
  "compiler": {
    "name": "solc",
    "version": "0.5.16+commit.9c3226ce.Emscripten.clang"
  },
  "schemaVersion": "3.4.5",
  "updatedAt": "2022-04-17T02:09:57.053Z",
  "networkType": "ethereum",
  "devdoc": {
    "methods": {}
  },
  "userdoc": {
    "methods": {}
  }
}