{
  "contractName": "MeloManiac",
  "abi": [
    {
      "inputs": [
        {
          "internalType": "contract MeloNotes",
          "name": "_tokenContract",
          "type": "address"
        }
      ],
      "stateMutability": "nonpayable",
      "type": "constructor"
    },
    {
      "inputs": [],
      "name": "artistsCount",
      "outputs": [
        {
          "internalType": "uint256",
          "name": "",
          "type": "uint256"
        }
      ],
      "stateMutability": "view",
      "type": "function",
      "constant": true
    },
    {
      "inputs": [],
      "name": "contractOwner",
      "outputs": [
        {
          "internalType": "address",
          "name": "",
          "type": "address"
        }
      ],
      "stateMutability": "view",
      "type": "function",
      "constant": true
    },
    {
      "inputs": [],
      "name": "songsCount",
      "outputs": [
        {
          "internalType": "uint256",
          "name": "",
          "type": "uint256"
        }
      ],
      "stateMutability": "view",
      "type": "function",
      "constant": true
    },
    {
      "inputs": [],
      "name": "tokenContract",
      "outputs": [
        {
          "internalType": "contract MeloNotes",
          "name": "",
          "type": "address"
        }
      ],
      "stateMutability": "view",
      "type": "function",
      "constant": true
    },
    {
      "inputs": [],
      "name": "usersCount",
      "outputs": [
        {
          "internalType": "uint256",
          "name": "",
          "type": "uint256"
        }
      ],
      "stateMutability": "view",
      "type": "function",
      "constant": true
    },
    {
      "inputs": [],
      "name": "getRole",
      "outputs": [
        {
          "internalType": "enum MeloManiac.ROLE",
          "name": "",
          "type": "uint8"
        }
      ],
      "stateMutability": "view",
      "type": "function",
      "constant": true
    },
    {
      "inputs": [
        {
          "internalType": "string",
          "name": "_hash",
          "type": "string"
        }
      ],
      "name": "songIsUnique",
      "outputs": [
        {
          "internalType": "uint256",
          "name": "",
          "type": "uint256"
        }
      ],
      "stateMutability": "view",
      "type": "function",
      "constant": true
    },
    {
      "inputs": [],
      "name": "userRegister",
      "outputs": [],
      "stateMutability": "nonpayable",
      "type": "function"
    },
    {
      "inputs": [
        {
          "internalType": "string",
          "name": "_nickName",
          "type": "string"
        }
      ],
      "name": "artistRegister",
      "outputs": [],
      "stateMutability": "payable",
      "type": "function",
      "payable": true
    },
    {
      "inputs": [
        {
          "internalType": "uint256",
          "name": "_notes",
          "type": "uint256"
        },
        {
          "internalType": "string",
          "name": "_title",
          "type": "string"
        },
        {
          "internalType": "string",
          "name": "songHash",
          "type": "string"
        }
      ],
      "name": "artistUploadSong",
      "outputs": [],
      "stateMutability": "nonpayable",
      "type": "function"
    },
    {
      "inputs": [
        {
          "internalType": "uint256",
          "name": "songID",
          "type": "uint256"
        }
      ],
      "name": "userBuySong",
      "outputs": [],
      "stateMutability": "payable",
      "type": "function",
      "payable": true
    },
    {
      "inputs": [],
      "name": "userDetail",
      "outputs": [
        {
          "internalType": "uint256",
          "name": "",
          "type": "uint256"
        },
        {
          "internalType": "uint256",
          "name": "",
          "type": "uint256"
        },
        {
          "internalType": "uint256[]",
          "name": "",
          "type": "uint256[]"
        }
      ],
      "stateMutability": "view",
      "type": "function",
      "constant": true
    },
    {
      "inputs": [
        {
          "internalType": "uint256",
          "name": "_artistID",
          "type": "uint256"
        }
      ],
      "name": "artistDetail",
      "outputs": [
        {
          "internalType": "string",
          "name": "",
          "type": "string"
        },
        {
          "internalType": "uint256[]",
          "name": "",
          "type": "uint256[]"
        }
      ],
      "stateMutability": "view",
      "type": "function",
      "constant": true
    },
    {
      "inputs": [
        {
          "internalType": "uint256",
          "name": "songID",
          "type": "uint256"
        }
      ],
      "name": "songDetail",
      "outputs": [
        {
          "internalType": "uint256",
          "name": "artistID",
          "type": "uint256"
        },
        {
          "internalType": "uint256",
          "name": "id",
          "type": "uint256"
        },
        {
          "internalType": "string",
          "name": "title",
          "type": "string"
        },
        {
          "internalType": "uint256",
          "name": "notes",
          "type": "uint256"
        },
        {
          "internalType": "uint256",
          "name": "releaseDate",
          "type": "uint256"
        },
        {
          "internalType": "string",
          "name": "songHash",
          "type": "string"
        }
      ],
      "stateMutability": "view",
      "type": "function",
      "constant": true
    }
  ],
  "bytecode": "0x60806040523480156200001157600080fd5b506040516200268a3803806200268a8339818101604052810190620000379190620000ee565b336000806101000a81548173ffffffffffffffffffffffffffffffffffffffff021916908373ffffffffffffffffffffffffffffffffffffffff16021790555080600160006101000a81548173ffffffffffffffffffffffffffffffffffffffff021916908373ffffffffffffffffffffffffffffffffffffffff160217905550600060028190555060006003819055506000600481905550506200017c565b600081519050620000e88162000162565b92915050565b6000602082840312156200010157600080fd5b60006200011184828501620000d7565b91505092915050565b6000620001278262000142565b9050919050565b60006200013b826200011a565b9050919050565b600073ffffffffffffffffffffffffffffffffffffffff82169050919050565b6200016d816200012e565b81146200017957600080fd5b50565b6124fe806200018c6000396000f3fe6080604052600436106100dd5760003560e01c80637b4e527b1161007f578063ce606ee011610059578063ce606ee0146102a7578063d2246a3c146102d2578063e153270e146102ee578063fde081741461031b576100dd565b80637b4e527b146101fe578063a29975f914610240578063aa2f043b14610269576100dd565b806355a373d6116100bb57806355a373d6146101665780636ba13a82146101915780636c6f360e146101bc5780637adc1fec146101d3576100dd565b8063253def13146100e257806343cb94d11461011f5780634e8172b81461013b575b600080fd5b3480156100ee57600080fd5b5061010960048036038101906101049190611982565b610346565b6040516101169190611fb1565b60405180910390f35b61013960048036038101906101349190611982565b610374565b005b34801561014757600080fd5b506101506107b7565b60405161015d9190611fb1565b60405180910390f35b34801561017257600080fd5b5061017b6107bd565b6040516101889190611e44565b60405180910390f35b34801561019d57600080fd5b506101a66107e3565b6040516101b39190611fb1565b60405180910390f35b3480156101c857600080fd5b506101d16107e9565b005b3480156101df57600080fd5b506101e8610ac0565b6040516101f59190611fb1565b60405180910390f35b34801561020a57600080fd5b50610225600480360381019061022091906119c7565b610ac6565b6040516102379695949392919061200a565b60405180910390f35b34801561024c57600080fd5b50610267600480360381019061026291906119f0565b610c72565b005b34801561027557600080fd5b50610290600480360381019061028b91906119c7565b611141565b60405161029e929190611e7a565b60405180910390f35b3480156102b357600080fd5b506102bc611257565b6040516102c99190611d4d565b60405180910390f35b6102ec60048036038101906102e791906119c7565b61127b565b005b3480156102fa57600080fd5b50610303611596565b60405161031293929190611fcc565b60405180910390f35b34801561032757600080fd5b506103306116bd565b60405161033d9190611e5f565b60405180910390f35b60006009838360405161035a929190611d1d565b908152602001604051809103902060010154905092915050565b6000600660003373ffffffffffffffffffffffffffffffffffffffff1673ffffffffffffffffffffffffffffffffffffffff16815260200190815260200160002054146103f6576040517f08c379a00000000000000000000000000000000000000000000000000000000081526004016103ed90611f91565b60405180910390fd5b60016004600082825461040991906120d9565b925050819055506000600760003373ffffffffffffffffffffffffffffffffffffffff1673ffffffffffffffffffffffffffffffffffffffff168152602001908152602001600020600001541415610464576104636107e9565b5b6040518060a001604052806004548152602001600760003373ffffffffffffffffffffffffffffffffffffffff1673ffffffffffffffffffffffffffffffffffffffff16815260200190815260200160002060000154815260200183838080601f016020809104026020016040519081016040528093929190818152602001838380828437600081840152601f19601f8201169050808301925050505050505081526020013373ffffffffffffffffffffffffffffffffffffffff168152602001600067ffffffffffffffff811115610566577f4e487b7100000000000000000000000000000000000000000000000000000000600052604160045260246000fd5b6040519080825280602002602001820160405280156105945781602001602082028036833780820191505090505b50815250600560006004548152602001908152602001600020600082015181600001556020820151816001015560408201518160020190805190602001906105dd929190611768565b5060608201518160030160006101000a81548173ffffffffffffffffffffffffffffffffffffffff021916908373ffffffffffffffffffffffffffffffffffffffff16021790555060808201518160040190805190602001906106419291906117ee565b50905050600454600660003373ffffffffffffffffffffffffffffffffffffffff1673ffffffffffffffffffffffffffffffffffffffff1681526020019081526020016000208190555060008054906101000a900473ffffffffffffffffffffffffffffffffffffffff1673ffffffffffffffffffffffffffffffffffffffff163373ffffffffffffffffffffffffffffffffffffffff16146107b357600160009054906101000a900473ffffffffffffffffffffffffffffffffffffffff1673ffffffffffffffffffffffffffffffffffffffff166323b872dd60008054906101000a900473ffffffffffffffffffffffffffffffffffffffff16336113886040518463ffffffff1660e01b815260040161075f93929190611dd6565b602060405180830381600087803b15801561077957600080fd5b505af115801561078d573d6000803e3d6000fd5b505050506040513d601f19601f820116820180604052508101906107b19190611959565b505b5050565b60025481565b600160009054906101000a900473ffffffffffffffffffffffffffffffffffffffff1681565b60035481565b6000600760003373ffffffffffffffffffffffffffffffffffffffff1673ffffffffffffffffffffffffffffffffffffffff168152602001908152602001600020600001541461086e576040517f08c379a000000000000000000000000000000000000000000000000000000000815260040161086590611f51565b60405180910390fd5b60016003600082825461088191906120d9565b92505081905550600354600760003373ffffffffffffffffffffffffffffffffffffffff1673ffffffffffffffffffffffffffffffffffffffff16815260200190815260200160002060000181905550600067ffffffffffffffff811115610912577f4e487b7100000000000000000000000000000000000000000000000000000000600052604160045260246000fd5b6040519080825280602002602001820160405280156109405781602001602082028036833780820191505090505b50600760003373ffffffffffffffffffffffffffffffffffffffff1673ffffffffffffffffffffffffffffffffffffffff16815260200190815260200160002060010190805190602001906109969291906117ee565b5060008054906101000a900473ffffffffffffffffffffffffffffffffffffffff1673ffffffffffffffffffffffffffffffffffffffff163373ffffffffffffffffffffffffffffffffffffffff1614610abe57600160009054906101000a900473ffffffffffffffffffffffffffffffffffffffff1673ffffffffffffffffffffffffffffffffffffffff166323b872dd60008054906101000a900473ffffffffffffffffffffffffffffffffffffffff163360646040518463ffffffff1660e01b8152600401610a6a93929190611d9f565b602060405180830381600087803b158015610a8457600080fd5b505af1158015610a98573d6000803e3d6000fd5b505050506040513d601f19601f82011682018060405250810190610abc9190611959565b505b565b60045481565b600080606060008060606000600860008981526020019081526020016000206040518060c00160405290816000820154815260200160018201548152602001600282018054610b149061226e565b80601f0160208091040260200160405190810160405280929190818152602001828054610b409061226e565b8015610b8d5780601f10610b6257610100808354040283529160200191610b8d565b820191906000526020600020905b815481529060010190602001808311610b7057829003601f168201915b505050505081526020016003820154815260200160048201548152602001600582018054610bba9061226e565b80601f0160208091040260200160405190810160405280929190818152602001828054610be69061226e565b8015610c335780601f10610c0857610100808354040283529160200191610c33565b820191906000526020600020905b815481529060010190602001808311610c1657829003601f168201915b505050505081525050905080602001519550806000015196508060400151945080608001519350806060015192508060a0015191505091939550919395565b6000600660003373ffffffffffffffffffffffffffffffffffffffff1673ffffffffffffffffffffffffffffffffffffffff168152602001908152602001600020541415610cf5576040517f08c379a0000000000000000000000000000000000000000000000000000000008152600401610cec90611f11565b60405180910390fd5b81818080601f016020809104026020016040519081016040528093929190818152602001838380828437600081840152601f19601f820116905080830192505050505050506000600982604051610d4c9190611d36565b90815260200160405180910390206001015414610d9e576040517f08c379a0000000000000000000000000000000000000000000000000000000008152600401610d9590611f71565b60405180910390fd5b600160026000828254610db191906120d9565b92505081905550600060056000600660003373ffffffffffffffffffffffffffffffffffffffff1673ffffffffffffffffffffffffffffffffffffffff16815260200190815260200160002054815260200190815260200160002090508060040160025490806001815401808255809150506001900390600052602060002001600090919091909150556040518060c0016040528082600001548152602001600254815260200187878080601f016020809104026020016040519081016040528093929190818152602001838380828437600081840152601f19601f82011690508083019250505050505050815260200142815260200188815260200185858080601f016020809104026020016040519081016040528093929190818152602001838380828437600081840152601f19601f8201169050808301925050505050505081525060086000600254815260200190815260200160002060008201518160000155602082015181600101556040820151816002019080519060200190610f3b929190611768565b50606082015181600301556080820151816004015560a0820151816005019080519060200190610f6c929190611768565b5090505060086000600254815260200190815260200160002060098585604051610f97929190611d1d565b908152602001604051809103902060008201548160000155600182015481600101556002820181600201908054610fcd9061226e565b610fd892919061183b565b50600382015481600301556004820154816004015560058201816005019080546110019061226e565b61100c92919061183b565b5090505060008054906101000a900473ffffffffffffffffffffffffffffffffffffffff1673ffffffffffffffffffffffffffffffffffffffff163373ffffffffffffffffffffffffffffffffffffffff161461113857600160009054906101000a900473ffffffffffffffffffffffffffffffffffffffff1673ffffffffffffffffffffffffffffffffffffffff166323b872dd60008054906101000a900473ffffffffffffffffffffffffffffffffffffffff16336101f46040518463ffffffff1660e01b81526004016110e493929190611e0d565b602060405180830381600087803b1580156110fe57600080fd5b505af1158015611112573d6000803e3d6000fd5b505050506040513d601f19601f820116820180604052508101906111369190611959565b505b50505050505050565b606080600560008481526020019081526020016000206002016005600085815260200190815260200160002060040181805461117c9061226e565b80601f01602080910402602001604051908101604052809291908181526020018280546111a89061226e565b80156111f55780601f106111ca576101008083540402835291602001916111f5565b820191906000526020600020905b8154815290600101906020018083116111d857829003601f168201915b505050505091508080548060200260200160405190810160405280929190818152602001828054801561124757602002820191906000526020600020905b815481526020019060010190808311611233575b5050505050905091509150915091565b60008054906101000a900473ffffffffffffffffffffffffffffffffffffffff1681565b6000600760003373ffffffffffffffffffffffffffffffffffffffff1673ffffffffffffffffffffffffffffffffffffffff168152602001908152602001600020600001541415611301576040517f08c379a00000000000000000000000000000000000000000000000000000000081526004016112f890611ed1565b60405180910390fd5b6000600860008381526020019081526020016000209050600081600101541415611360576040517f08c379a000000000000000000000000000000000000000000000000000000000815260040161135790611eb1565b60405180910390fd5b806004015434146113a6576040517f08c379a000000000000000000000000000000000000000000000000000000000815260040161139d90611f31565b60405180910390fd5b6000600760003373ffffffffffffffffffffffffffffffffffffffff1673ffffffffffffffffffffffffffffffffffffffff168152602001908152602001600020905080600201600084815260200190815260200160002060009054906101000a900460ff161561144c576040517f08c379a000000000000000000000000000000000000000000000000000000000815260040161144390611ef1565b60405180910390fd5b80600101839080600181540180825580915050600190039060005260206000200160009091909190915055600181600201600085815260200190815260200160002060006101000a81548160ff021916908315150217905550600160009054906101000a900473ffffffffffffffffffffffffffffffffffffffff1673ffffffffffffffffffffffffffffffffffffffff166323b872dd33600560008660000154815260200190815260200160002060030160009054906101000a900473ffffffffffffffffffffffffffffffffffffffff16346040518463ffffffff1660e01b815260040161153e93929190611d68565b602060405180830381600087803b15801561155857600080fd5b505af115801561156c573d6000803e3d6000fd5b505050506040513d601f19601f820116820180604052508101906115909190611959565b50505050565b6000806060600760003373ffffffffffffffffffffffffffffffffffffffff1673ffffffffffffffffffffffffffffffffffffffff16815260200190815260200160002060000154600660003373ffffffffffffffffffffffffffffffffffffffff1673ffffffffffffffffffffffffffffffffffffffff16815260200190815260200160002054600760003373ffffffffffffffffffffffffffffffffffffffff1673ffffffffffffffffffffffffffffffffffffffff168152602001908152602001600020600101808054806020026020016040519081016040528092919081815260200182805480156116ab57602002820191906000526020600020905b815481526020019060010190808311611697575b50505050509050925092509250909192565b600080600660003373ffffffffffffffffffffffffffffffffffffffff1673ffffffffffffffffffffffffffffffffffffffff168152602001908152602001600020541415611760576000600760003373ffffffffffffffffffffffffffffffffffffffff1673ffffffffffffffffffffffffffffffffffffffff16815260200190815260200160002060000154141561175857600061175b565b60025b611763565b60015b905090565b8280546117749061226e565b90600052602060002090601f01602090048101928261179657600085556117dd565b82601f106117af57805160ff19168380011785556117dd565b828001600101855582156117dd579182015b828111156117dc5782518255916020019190600101906117c1565b5b5090506117ea91906118c8565b5090565b82805482825590600052602060002090810192821561182a579160200282015b8281111561182957825182559160200191906001019061180e565b5b50905061183791906118c8565b5090565b8280546118479061226e565b90600052602060002090601f01602090048101928261186957600085556118b7565b82601f1061187a57805485556118b7565b828001600101855582156118b757600052602060002091601f016020900482015b828111156118b657825482559160010191906001019061189b565b5b5090506118c491906118c8565b5090565b5b808211156118e15760008160009055506001016118c9565b5090565b6000815190506118f48161249a565b92915050565b60008083601f84011261190c57600080fd5b8235905067ffffffffffffffff81111561192557600080fd5b60208301915083600182028301111561193d57600080fd5b9250929050565b600081359050611953816124b1565b92915050565b60006020828403121561196b57600080fd5b6000611979848285016118e5565b91505092915050565b6000806020838503121561199557600080fd5b600083013567ffffffffffffffff8111156119af57600080fd5b6119bb858286016118fa565b92509250509250929050565b6000602082840312156119d957600080fd5b60006119e784828501611944565b91505092915050565b600080600080600060608688031215611a0857600080fd5b6000611a1688828901611944565b955050602086013567ffffffffffffffff811115611a3357600080fd5b611a3f888289016118fa565b9450945050604086013567ffffffffffffffff811115611a5e57600080fd5b611a6a888289016118fa565b92509250509295509295909350565b6000611a858383611cff565b60208301905092915050565b611a9a8161218a565b82525050565b611aa98161212f565b82525050565b6000611aba82612089565b611ac481856120ac565b9350611acf83612079565b8060005b83811015611b00578151611ae78882611a79565b9750611af28361209f565b925050600181019050611ad3565b5085935050505092915050565b611b168161219c565b82525050565b611b25816121c0565b82525050565b611b34816121d2565b82525050565b611b43816121e4565b82525050565b611b52816121f6565b82525050565b6000611b6483856120ce565b9350611b7183858461222c565b82840190509392505050565b6000611b8882612094565b611b9281856120bd565b9350611ba281856020860161223b565b611bab8161232d565b840191505092915050565b6000611bc182612094565b611bcb81856120ce565b9350611bdb81856020860161223b565b80840191505092915050565b6000611bf46014836120bd565b9150611bff8261233e565b602082019050919050565b6000611c17600a836120bd565b9150611c2282612367565b602082019050919050565b6000611c3a600f836120bd565b9150611c4582612390565b602082019050919050565b6000611c5d600d836120bd565b9150611c68826123b9565b602082019050919050565b6000611c80601b836120bd565b9150611c8b826123e2565b602082019050919050565b6000611ca36018836120bd565b9150611cae8261240b565b602082019050919050565b6000611cc66016836120bd565b9150611cd182612434565b602082019050919050565b6000611ce9601a836120bd565b9150611cf48261245d565b602082019050919050565b611d0881612180565b82525050565b611d1781612180565b82525050565b6000611d2a828486611b58565b91508190509392505050565b6000611d428284611bb6565b915081905092915050565b6000602082019050611d626000830184611aa0565b92915050565b6000606082019050611d7d6000830186611aa0565b611d8a6020830185611a91565b611d976040830184611d0e565b949350505050565b6000606082019050611db46000830186611aa0565b611dc16020830185611aa0565b611dce6040830184611b2b565b949350505050565b6000606082019050611deb6000830186611aa0565b611df86020830185611aa0565b611e056040830184611b3a565b949350505050565b6000606082019050611e226000830186611aa0565b611e2f6020830185611aa0565b611e3c6040830184611b49565b949350505050565b6000602082019050611e596000830184611b0d565b92915050565b6000602082019050611e746000830184611b1c565b92915050565b60006040820190508181036000830152611e948185611b7d565b90508181036020830152611ea88184611aaf565b90509392505050565b60006020820190508181036000830152611eca81611be7565b9050919050565b60006020820190508181036000830152611eea81611c0a565b9050919050565b60006020820190508181036000830152611f0a81611c2d565b9050919050565b60006020820190508181036000830152611f2a81611c50565b9050919050565b60006020820190508181036000830152611f4a81611c73565b9050919050565b60006020820190508181036000830152611f6a81611c96565b9050919050565b60006020820190508181036000830152611f8a81611cb9565b9050919050565b60006020820190508181036000830152611faa81611cdc565b9050919050565b6000602082019050611fc66000830184611d0e565b92915050565b6000606082019050611fe16000830186611d0e565b611fee6020830185611d0e565b81810360408301526120008184611aaf565b9050949350505050565b600060c08201905061201f6000830189611d0e565b61202c6020830188611d0e565b818103604083015261203e8187611b7d565b905061204d6060830186611d0e565b61205a6080830185611d0e565b81810360a083015261206c8184611b7d565b9050979650505050505050565b6000819050602082019050919050565b600081519050919050565b600081519050919050565b6000602082019050919050565b600082825260208201905092915050565b600082825260208201905092915050565b600081905092915050565b60006120e482612180565b91506120ef83612180565b9250827fffffffffffffffffffffffffffffffffffffffffffffffffffffffffffffffff03821115612124576121236122a0565b5b828201905092915050565b600061213a82612160565b9050919050565b60008115159050919050565b600081905061215b82612486565b919050565b600073ffffffffffffffffffffffffffffffffffffffff82169050919050565b6000819050919050565b600061219582612208565b9050919050565b60006121a7826121ae565b9050919050565b60006121b982612160565b9050919050565b60006121cb8261214d565b9050919050565b60006121dd82612180565b9050919050565b60006121ef82612180565b9050919050565b600061220182612180565b9050919050565b60006122138261221a565b9050919050565b600061222582612160565b9050919050565b82818337600083830152505050565b60005b8381101561225957808201518184015260208101905061223e565b83811115612268576000848401525b50505050565b6000600282049050600182168061228657607f821691505b6020821081141561229a576122996122fe565b5b50919050565b7f4e487b7100000000000000000000000000000000000000000000000000000000600052601160045260246000fd5b7f4e487b7100000000000000000000000000000000000000000000000000000000600052602160045260246000fd5b7f4e487b7100000000000000000000000000000000000000000000000000000000600052602260045260246000fd5b6000601f19601f8301169050919050565b7f536f6e6720646f6573206e6f7420657869737421000000000000000000000000600082015250565b7f4e6f742061207573657200000000000000000000000000000000000000000000600082015250565b7f43616e2774206275792074776963650000000000000000000000000000000000600082015250565b7f4e6f7420616e2061727469737400000000000000000000000000000000000000600082015250565b7f436865636b20696620736f6e67206e6f74657320697320706169640000000000600082015250565b7f5573657220416c72656164792072656769737465726564210000000000000000600082015250565b7f43616e27742075706c6f6164206475706c696361746500000000000000000000600082015250565b7f41727469737420416c7265616479207265676973746572656421000000000000600082015250565b60038110612497576124966122cf565b5b50565b6124a381612141565b81146124ae57600080fd5b50565b6124ba81612180565b81146124c557600080fd5b5056fea2646970667358221220f9c55b12ce4700816f6098fcca3c06b1b5ba9e6e799c609a6399a399c242777864736f6c63430008040033",
  "immutableReferences": {},
  "source": "// SPDX-License-Identifier: MIT\npragma solidity >=0.4.22 <0.9.0;\n\n// Deployed at <Enter address starting with 0x> on Ropsten Network\n\nimport \"./MeloNotes.sol\";\n\ncontract MeloManiac {\n    address public contractOwner;\n    MeloNotes public tokenContract;\n    uint public songsCount;\n    uint public usersCount;\n    uint public artistsCount;\n \n    struct User {\n        uint userID;\n        uint[] ownedSongs;\n        mapping (uint => bool) ownership;\n    }\n \n    struct Artist {\n        uint artistID;\n        uint userID;\n        string nickName;\n        address payable artistAddress;\n        uint[] uploadedSongs;\n    }\n \n    struct Song {\n        uint artistID;\n        uint songID;\n        string title;\n        uint releaseDate;\n        uint notes;\n        string songHash;\n    }\n \n    enum ROLE {UNREGISTERED, ARTIST, USER}\n \n    mapping (uint => Artist) artistIDToArtist;\n    mapping (address => uint) addressToArtistID;\n    mapping (address => User) addressToUser;\n    mapping (uint => Song) songIDtoSong;\n    mapping (string => Song) hashToSong;\n\n    modifier onlyUser {\n        require(addressToUser[msg.sender].userID != 0, \"Not a user\");\n        _;\n    }\n\n    modifier onlyArtist {\n        require(addressToArtistID[msg.sender] != 0, \"Not an artist\");\n        _;\n    }\n    \n    modifier onlyNewUser {\n        require(addressToUser[msg.sender].userID == 0, \"User Already registered!\");\n        _;\n    }\n\n    modifier onlyNewArtist {\n        require(addressToArtistID[msg.sender] == 0, \"Artist Already registered!\");\n        _;\n    }\n\n    modifier onlyUniqueSong(string memory songHash) {\n        require(hashToSong[songHash].songID == 0, \"Can't upload duplicate\");\n        _;\n    }\n\n    constructor(MeloNotes _tokenContract) {\n        contractOwner = msg.sender;\n        tokenContract = _tokenContract;\n        songsCount = 0;\n        usersCount = 0;\n        artistsCount = 0;\n    }\n \n    function getRole() external view returns(ROLE) {\n        return ((addressToArtistID[msg.sender] != 0) ? ROLE.ARTIST: (addressToUser[msg.sender].userID != 0) ? ROLE.USER: ROLE.UNREGISTERED);\n    }\n    \n    function songIsUnique(string calldata _hash) external view returns(uint) {\n        return hashToSong[_hash].songID;\n    }\n     \n    function userRegister() public onlyNewUser {\n        usersCount += 1;\n\n        addressToUser[msg.sender].userID = usersCount;\n        addressToUser[msg.sender].ownedSongs = new uint[](0);\n\n        if (msg.sender != contractOwner)\n        {\n            tokenContract.transferFrom(contractOwner, msg.sender, 100);\n        }\n    }\n     \n    function artistRegister(string calldata _nickName) external onlyNewArtist payable {\n        // require(msg.value == 5 ** tokenContract.decimals(), \"Artist registration fee\");\n        artistsCount += 1;\n        \n        if (addressToUser[msg.sender].userID == 0) {\n            userRegister();\n        }\n        \n        artistIDToArtist[artistsCount] = Artist(artistsCount,addressToUser[msg.sender].userID, _nickName, payable(msg.sender), new uint[](0));\n\n        addressToArtistID[msg.sender] = artistsCount;\n\n        if (msg.sender != contractOwner)\n        {\n            tokenContract.transferFrom(contractOwner, msg.sender, 5000);\n        }\n    }\n     \n    function artistUploadSong(uint _notes, string calldata _title, string calldata songHash) external onlyArtist onlyUniqueSong(songHash) {\n        songsCount += 1;\n        \n        Artist storage artistInstance = artistIDToArtist[addressToArtistID[msg.sender]];\n        artistInstance.uploadedSongs.push(songsCount);\n    \n        songIDtoSong[songsCount] = Song(artistInstance.artistID, songsCount, _title, block.timestamp, _notes, songHash);\n        hashToSong[songHash] = songIDtoSong[songsCount];\n\n        if (msg.sender != contractOwner)\n        {\n            tokenContract.transferFrom(contractOwner, msg.sender, 500);\n        }\n    }\n     \n    function userBuySong(uint songID) external onlyUser payable {\n        Song storage song = songIDtoSong[songID];\n        require(song.songID != 0, \"Song does not exist!\");\n        require(msg.value == song.notes, \"Check if song notes is paid\");\n\n        User storage user = addressToUser[msg.sender];\n        require(!user.ownership[songID], \"Can't buy twice\");\n        \n        user.ownedSongs.push(songID);\n        user.ownership[songID] = true;\n    \n        tokenContract.transferFrom(msg.sender, artistIDToArtist[song.artistID].artistAddress, msg.value);\n    }\n     \n    function userDetail() external view returns(uint, uint, uint[] memory) {\n        return (addressToUser[msg.sender].userID, addressToArtistID[msg.sender], addressToUser[msg.sender].ownedSongs);\n    }\n     \n    function artistDetail(uint _artistID) external view returns(string memory, uint[] memory) {\n        return (artistIDToArtist[_artistID].nickName, artistIDToArtist[_artistID].uploadedSongs);\n    }\n     \n    function songDetail(uint songID) external view returns(uint artistID, uint id, string memory title, uint notes, uint releaseDate, string memory songHash) {\n        Song memory song = songIDtoSong[songID];        \n        id = song.songID;\n        artistID = song.artistID;\n        title = song.title;\n        notes = song.notes;\n        releaseDate = song.releaseDate;\n        songHash = song.songHash;\n    }\n}",
  "sourcePath": "/Users/shriramr/Documents/GitHub/MeloManiac/contracts/MeloManiac.sol",
  "compiler": {
    "name": "solc",
    "version": "0.8.4+commit.c7e474f2.Emscripten.clang"
  },
  "schemaVersion": "3.4.7",
  "updatedAt": "2022-05-08T23:25:28.296Z",
  "networkType": "ethereum",
  "devdoc": {
    "kind": "dev",
    "methods": {},
    "version": 1
  },
  "userdoc": {
    "kind": "user",
    "methods": {},
    "version": 1
  }
}